{
  "_format": "hh-sol-artifact-1",
  "contractName": "Domains",
  "sourceName": "contracts/Domains.sol",
  "abi": [
    {
      "inputs": [
        {
          "internalType": "string",
          "name": "_tld",
          "type": "string"
        }
      ],
      "stateMutability": "payable",
      "type": "constructor"
    },
    {
      "inputs": [],
      "name": "AlreadyRegistered",
      "type": "error"
    },
    {
      "inputs": [
        {
          "internalType": "string",
          "name": "name",
          "type": "string"
        }
      ],
      "name": "InvalidName",
      "type": "error"
    },
    {
      "inputs": [],
      "name": "UnAuthorised",
      "type": "error"
    },
    {
      "anonymous": false,
      "inputs": [
        {
          "indexed": true,
          "internalType": "address",
          "name": "owner",
          "type": "address"
        },
        {
          "indexed": true,
          "internalType": "address",
          "name": "approved",
          "type": "address"
        },
        {
          "indexed": true,
          "internalType": "uint256",
          "name": "tokenId",
          "type": "uint256"
        }
      ],
      "name": "Approval",
      "type": "event"
    },
    {
      "anonymous": false,
      "inputs": [
        {
          "indexed": true,
          "internalType": "address",
          "name": "owner",
          "type": "address"
        },
        {
          "indexed": true,
          "internalType": "address",
          "name": "operator",
          "type": "address"
        },
        {
          "indexed": false,
          "internalType": "bool",
          "name": "approved",
          "type": "bool"
        }
      ],
      "name": "ApprovalForAll",
      "type": "event"
    },
    {
      "anonymous": false,
      "inputs": [
        {
          "indexed": true,
          "internalType": "address",
          "name": "from",
          "type": "address"
        },
        {
          "indexed": true,
          "internalType": "address",
          "name": "to",
          "type": "address"
        },
        {
          "indexed": true,
          "internalType": "uint256",
          "name": "tokenId",
          "type": "uint256"
        }
      ],
      "name": "Transfer",
      "type": "event"
    },
    {
      "inputs": [
        {
          "internalType": "address",
          "name": "to",
          "type": "address"
        },
        {
          "internalType": "uint256",
          "name": "tokenId",
          "type": "uint256"
        }
      ],
      "name": "approve",
      "outputs": [],
      "stateMutability": "nonpayable",
      "type": "function"
    },
    {
      "inputs": [
        {
          "internalType": "address",
          "name": "owner",
          "type": "address"
        }
      ],
      "name": "balanceOf",
      "outputs": [
        {
          "internalType": "uint256",
          "name": "",
          "type": "uint256"
        }
      ],
      "stateMutability": "view",
      "type": "function"
    },
    {
      "inputs": [
        {
          "internalType": "uint256",
          "name": "",
          "type": "uint256"
        }
      ],
      "name": "domainNames",
      "outputs": [
        {
          "internalType": "string",
          "name": "",
          "type": "string"
        }
      ],
      "stateMutability": "view",
      "type": "function"
    },
    {
      "inputs": [
        {
          "internalType": "string",
          "name": "",
          "type": "string"
        }
      ],
      "name": "domains",
      "outputs": [
        {
          "internalType": "address",
          "name": "",
          "type": "address"
        }
      ],
      "stateMutability": "view",
      "type": "function"
    },
    {
      "inputs": [
        {
          "internalType": "string",
          "name": "_name",
          "type": "string"
        }
      ],
      "name": "getAddress",
      "outputs": [
        {
          "internalType": "address",
          "name": "",
          "type": "address"
        }
      ],
      "stateMutability": "view",
      "type": "function"
    },
    {
      "inputs": [],
      "name": "getAllDomainNames",
      "outputs": [
        {
          "internalType": "string[]",
          "name": "",
          "type": "string[]"
        }
      ],
      "stateMutability": "view",
      "type": "function"
    },
    {
      "inputs": [
        {
          "internalType": "uint256",
          "name": "tokenId",
          "type": "uint256"
        }
      ],
      "name": "getApproved",
      "outputs": [
        {
          "internalType": "address",
          "name": "",
          "type": "address"
        }
      ],
      "stateMutability": "view",
      "type": "function"
    },
    {
      "inputs": [
        {
          "internalType": "string",
          "name": "_name",
          "type": "string"
        }
      ],
      "name": "getRecord",
      "outputs": [
        {
          "internalType": "string",
          "name": "",
          "type": "string"
        }
      ],
      "stateMutability": "view",
      "type": "function"
    },
    {
      "inputs": [
        {
          "internalType": "address",
          "name": "owner",
          "type": "address"
        },
        {
          "internalType": "address",
          "name": "operator",
          "type": "address"
        }
      ],
      "name": "isApprovedForAll",
      "outputs": [
        {
          "internalType": "bool",
          "name": "",
          "type": "bool"
        }
      ],
      "stateMutability": "view",
      "type": "function"
    },
    {
      "inputs": [
        {
          "internalType": "string",
          "name": "_domain",
          "type": "string"
        }
      ],
      "name": "isDomainTaken",
      "outputs": [
        {
          "internalType": "bool",
          "name": "",
          "type": "bool"
        }
      ],
      "stateMutability": "view",
      "type": "function"
    },
    {
      "inputs": [],
      "name": "isOwner",
      "outputs": [
        {
          "internalType": "bool",
          "name": "",
          "type": "bool"
        }
      ],
      "stateMutability": "view",
      "type": "function"
    },
    {
      "inputs": [],
      "name": "name",
      "outputs": [
        {
          "internalType": "string",
          "name": "",
          "type": "string"
        }
      ],
      "stateMutability": "view",
      "type": "function"
    },
    {
      "inputs": [],
      "name": "owner",
      "outputs": [
        {
          "internalType": "address payable",
          "name": "",
          "type": "address"
        }
      ],
      "stateMutability": "view",
      "type": "function"
    },
    {
      "inputs": [
        {
          "internalType": "uint256",
          "name": "tokenId",
          "type": "uint256"
        }
      ],
      "name": "ownerOf",
      "outputs": [
        {
          "internalType": "address",
          "name": "",
          "type": "address"
        }
      ],
      "stateMutability": "view",
      "type": "function"
    },
    {
      "inputs": [
        {
          "internalType": "string",
          "name": "_name",
          "type": "string"
        }
      ],
      "name": "price",
      "outputs": [
        {
          "internalType": "uint256",
          "name": "",
          "type": "uint256"
        }
      ],
      "stateMutability": "pure",
      "type": "function"
    },
    {
      "inputs": [
        {
          "internalType": "string",
          "name": "",
          "type": "string"
        }
      ],
      "name": "records",
      "outputs": [
        {
          "internalType": "string",
          "name": "",
          "type": "string"
        }
      ],
      "stateMutability": "view",
      "type": "function"
    },
    {
      "inputs": [
        {
          "internalType": "string",
          "name": "_name",
          "type": "string"
        }
      ],
      "name": "register",
      "outputs": [],
      "stateMutability": "payable",
      "type": "function"
    },
    {
      "inputs": [
        {
          "internalType": "address",
          "name": "from",
          "type": "address"
        },
        {
          "internalType": "address",
          "name": "to",
          "type": "address"
        },
        {
          "internalType": "uint256",
          "name": "tokenId",
          "type": "uint256"
        }
      ],
      "name": "safeTransferFrom",
      "outputs": [],
      "stateMutability": "nonpayable",
      "type": "function"
    },
    {
      "inputs": [
        {
          "internalType": "address",
          "name": "from",
          "type": "address"
        },
        {
          "internalType": "address",
          "name": "to",
          "type": "address"
        },
        {
          "internalType": "uint256",
          "name": "tokenId",
          "type": "uint256"
        },
        {
          "internalType": "bytes",
          "name": "_data",
          "type": "bytes"
        }
      ],
      "name": "safeTransferFrom",
      "outputs": [],
      "stateMutability": "nonpayable",
      "type": "function"
    },
    {
      "inputs": [
        {
          "internalType": "address",
          "name": "operator",
          "type": "address"
        },
        {
          "internalType": "bool",
          "name": "approved",
          "type": "bool"
        }
      ],
      "name": "setApprovalForAll",
      "outputs": [],
      "stateMutability": "nonpayable",
      "type": "function"
    },
    {
      "inputs": [
        {
          "internalType": "string",
          "name": "_name",
          "type": "string"
        },
        {
          "internalType": "string",
          "name": "record",
          "type": "string"
        }
      ],
      "name": "setRecord",
      "outputs": [],
      "stateMutability": "nonpayable",
      "type": "function"
    },
    {
      "inputs": [
        {
          "internalType": "bytes4",
          "name": "interfaceId",
          "type": "bytes4"
        }
      ],
      "name": "supportsInterface",
      "outputs": [
        {
          "internalType": "bool",
          "name": "",
          "type": "bool"
        }
      ],
      "stateMutability": "view",
      "type": "function"
    },
    {
      "inputs": [],
      "name": "symbol",
      "outputs": [
        {
          "internalType": "string",
          "name": "",
          "type": "string"
        }
      ],
      "stateMutability": "view",
      "type": "function"
    },
    {
      "inputs": [],
      "name": "tld",
      "outputs": [
        {
          "internalType": "string",
          "name": "",
          "type": "string"
        }
      ],
      "stateMutability": "view",
      "type": "function"
    },
    {
      "inputs": [
        {
          "internalType": "uint256",
          "name": "tokenId",
          "type": "uint256"
        }
      ],
      "name": "tokenURI",
      "outputs": [
        {
          "internalType": "string",
          "name": "",
          "type": "string"
        }
      ],
      "stateMutability": "view",
      "type": "function"
    },
    {
      "inputs": [
        {
          "internalType": "address",
          "name": "from",
          "type": "address"
        },
        {
          "internalType": "address",
          "name": "to",
          "type": "address"
        },
        {
          "internalType": "uint256",
          "name": "tokenId",
          "type": "uint256"
        }
      ],
      "name": "transferFrom",
      "outputs": [],
      "stateMutability": "nonpayable",
      "type": "function"
    },
    {
      "inputs": [
        {
          "internalType": "string",
          "name": "_name",
          "type": "string"
        }
      ],
      "name": "valid",
      "outputs": [
        {
          "internalType": "bool",
          "name": "",
          "type": "bool"
        }
      ],
      "stateMutability": "view",
      "type": "function"
    },
    {
      "inputs": [],
      "name": "withdraw",
      "outputs": [],
      "stateMutability": "nonpayable",
      "type": "function"
    }
  ],
  "bytecode": "0x6080604052604051806108a0016040528061086b81526020016200544361086b91396009908051906020019062000038929190620002a8565b506040518060400160405280600d81526020017f3c2f746578743e3c2f7376673e00000000000000000000000000000000000000815250600a908051906020019062000086929190620002a8565b5060405162005cae38038062005cae8339818101604052810190620000ac9190620004f5565b6040518060400160405280601181526020017f4d6f6f6e204e616d6520536572766963650000000000000000000000000000008152506040518060400160405280600381526020017f4d4e530000000000000000000000000000000000000000000000000000000000815250816000908051906020019062000130929190620002a8565b50806001908051906020019062000149929190620002a8565b50505033600760006101000a81548173ffffffffffffffffffffffffffffffffffffffff021916908373ffffffffffffffffffffffffffffffffffffffff16021790555080600b9080519060200190620001a5929190620002a8565b50620001d56040518060600160405280602181526020016200542260219139620001dc60201b62001cc51760201c565b506200062c565b6200027c81604051602401620001f39190620005a3565b6040516020818303038152906040527f41304fac000000000000000000000000000000000000000000000000000000007bffffffffffffffffffffffffffffffffffffffffffffffffffffffff19166020820180517bffffffffffffffffffffffffffffffffffffffffffffffffffffffff83818316178352505050506200027f60201b60201c565b50565b60008151905060006a636f6e736f6c652e6c6f679050602083016000808483855afa5050505050565b828054620002b690620005f6565b90600052602060002090601f016020900481019282620002da576000855562000326565b82601f10620002f557805160ff191683800117855562000326565b8280016001018555821562000326579182015b828111156200032557825182559160200191906001019062000308565b5b50905062000335919062000339565b5090565b5b80821115620003545760008160009055506001016200033a565b5090565b6000604051905090565b600080fd5b600080fd5b600080fd5b600080fd5b6000601f19601f8301169050919050565b7f4e487b7100000000000000000000000000000000000000000000000000000000600052604160045260246000fd5b620003c18262000376565b810181811067ffffffffffffffff82111715620003e357620003e262000387565b5b80604052505050565b6000620003f862000358565b9050620004068282620003b6565b919050565b600067ffffffffffffffff82111562000429576200042862000387565b5b620004348262000376565b9050602081019050919050565b60005b838110156200046157808201518184015260208101905062000444565b8381111562000471576000848401525b50505050565b60006200048e62000488846200040b565b620003ec565b905082815260208101848484011115620004ad57620004ac62000371565b5b620004ba84828562000441565b509392505050565b600082601f830112620004da57620004d96200036c565b5b8151620004ec84826020860162000477565b91505092915050565b6000602082840312156200050e576200050d62000362565b5b600082015167ffffffffffffffff8111156200052f576200052e62000367565b5b6200053d84828501620004c2565b91505092915050565b600081519050919050565b600082825260208201905092915050565b60006200056f8262000546565b6200057b818562000551565b93506200058d81856020860162000441565b620005988162000376565b840191505092915050565b60006020820190508181036000830152620005bf818462000562565b905092915050565b7f4e487b7100000000000000000000000000000000000000000000000000000000600052602260045260246000fd5b600060028204905060018216806200060f57607f821691505b60208210811415620006265762000625620005c7565b5b50919050565b614de6806200063c6000396000f3fe6080604052600436106101b75760003560e01c806365a3ff81116100ec578063b88d4fde1161008a578063c87b56dd11610064578063c87b56dd1461066a578063e985e9c5146106a7578063f2c298be146106e4578063fe2c619814610700576101b7565b8063b88d4fde146105db578063bf40fac114610604578063c1880a9814610641576101b7565b80638f32d59b116100c65780638f32d59b1461051f57806395d89b411461054a5780639791c09714610575578063a22cb465146105b2576101b7565b806365a3ff811461048c57806370a08231146104b75780638da5cb5b146104f4576101b7565b8063264492351161015957806342842e0e1161013357806342842e0e146103ac578063541e771d146103d55780636352211e14610412578063636921cf1461044f576101b7565b8063264492351461032d5780632d5514321461036a5780633ccfd60b14610395576101b7565b8063095ea7b311610195578063095ea7b31461026157806311dd88451461028a5780631876f8ab146102c757806323b872dd14610304576101b7565b806301ffc9a7146101bc57806306fdde03146101f9578063081812fc14610224575b600080fd5b3480156101c857600080fd5b506101e360048036038101906101de91906131a7565b61073d565b6040516101f091906131ef565b60405180910390f35b34801561020557600080fd5b5061020e61081f565b60405161021b91906132a3565b60405180910390f35b34801561023057600080fd5b5061024b600480360381019061024691906132fb565b6108b1565b6040516102589190613369565b60405180910390f35b34801561026d57600080fd5b50610288600480360381019061028391906133b0565b610936565b005b34801561029657600080fd5b506102b160048036038101906102ac9190613455565b610a4e565b6040516102be91906132a3565b60405180910390f35b3480156102d357600080fd5b506102ee60048036038101906102e991906135d2565b610b01565b6040516102fb91906131ef565b60405180910390f35b34801561031057600080fd5b5061032b6004803603810190610326919061361b565b610bb4565b005b34801561033957600080fd5b50610354600480360381019061034f91906135d2565b610c14565b6040516103619190613369565b60405180910390f35b34801561037657600080fd5b5061037f610c5d565b60405161038c91906132a3565b60405180910390f35b3480156103a157600080fd5b506103aa610ceb565b005b3480156103b857600080fd5b506103d360048036038101906103ce919061361b565b610db1565b005b3480156103e157600080fd5b506103fc60048036038101906103f791906135d2565b610dd1565b60405161040991906132a3565b60405180910390f35b34801561041e57600080fd5b50610439600480360381019061043491906132fb565b610e87565b6040516104469190613369565b60405180910390f35b34801561045b57600080fd5b50610476600480360381019061047191906132fb565b610f39565b60405161048391906132a3565b60405180910390f35b34801561049857600080fd5b506104a1610fd9565b6040516104ae919061377a565b60405180910390f35b3480156104c357600080fd5b506104de60048036038101906104d9919061379c565b6111b7565b6040516104eb91906137d8565b60405180910390f35b34801561050057600080fd5b5061050961126f565b6040516105169190613814565b60405180910390f35b34801561052b57600080fd5b50610534611295565b60405161054191906131ef565b60405180910390f35b34801561055657600080fd5b5061055f6112ed565b60405161056c91906132a3565b60405180910390f35b34801561058157600080fd5b5061059c60048036038101906105979190613455565b61137f565b6040516105a991906131ef565b60405180910390f35b3480156105be57600080fd5b506105d960048036038101906105d4919061385b565b611489565b005b3480156105e757600080fd5b5061060260048036038101906105fd919061393c565b61149f565b005b34801561061057600080fd5b5061062b60048036038101906106269190613455565b611501565b6040516106389190613369565b60405180910390f35b34801561064d57600080fd5b50610668600480360381019061066391906139bf565b61154c565b005b34801561067657600080fd5b50610691600480360381019061068c91906132fb565b6116ab565b60405161069e91906132a3565b60405180910390f35b3480156106b357600080fd5b506106ce60048036038101906106c99190613a40565b6117fd565b6040516106db91906131ef565b60405180910390f35b6106fe60048036038101906106f99190613455565b611891565b005b34801561070c57600080fd5b5061072760048036038101906107229190613455565b611c1f565b60405161073491906137d8565b60405180910390f35b60007f80ac58cd000000000000000000000000000000000000000000000000000000007bffffffffffffffffffffffffffffffffffffffffffffffffffffffff1916827bffffffffffffffffffffffffffffffffffffffffffffffffffffffff1916148061080857507f5b5e139f000000000000000000000000000000000000000000000000000000007bffffffffffffffffffffffffffffffffffffffffffffffffffffffff1916827bffffffffffffffffffffffffffffffffffffffffffffffffffffffff1916145b80610818575061081782611d5e565b5b9050919050565b60606000805461082e90613aaf565b80601f016020809104026020016040519081016040528092919081815260200182805461085a90613aaf565b80156108a75780601f1061087c576101008083540402835291602001916108a7565b820191906000526020600020905b81548152906001019060200180831161088a57829003601f168201915b5050505050905090565b60006108bc82611dc8565b6108fb576040517f08c379a00000000000000000000000000000000000000000000000000000000081526004016108f290613b53565b60405180910390fd5b6004600083815260200190815260200160002060009054906101000a900473ffffffffffffffffffffffffffffffffffffffff169050919050565b600061094182610e87565b90508073ffffffffffffffffffffffffffffffffffffffff168373ffffffffffffffffffffffffffffffffffffffff1614156109b2576040517f08c379a00000000000000000000000000000000000000000000000000000000081526004016109a990613be5565b60405180910390fd5b8073ffffffffffffffffffffffffffffffffffffffff166109d1611e34565b73ffffffffffffffffffffffffffffffffffffffff161480610a0057506109ff816109fa611e34565b6117fd565b5b610a3f576040517f08c379a0000000000000000000000000000000000000000000000000000000008152600401610a3690613c77565b60405180910390fd5b610a498383611e3c565b505050565b6060600e8383604051610a62929190613cc7565b90815260200160405180910390208054610a7b90613aaf565b80601f0160208091040260200160405190810160405280929190818152602001828054610aa790613aaf565b8015610af45780601f10610ac957610100808354040283529160200191610af4565b820191906000526020600020905b815481529060010190602001808311610ad757829003601f168201915b5050505050905092915050565b600080610b0c610fd9565b90506000805b610b1c6008611ef5565b811015610ba95784604051602001610b349190613d11565b60405160208183030381529060405280519060200120838281518110610b5d57610b5c613d28565b5b6020026020010151604051602001610b759190613d11565b604051602081830303815290604052805190602001201415610b9657600191505b8080610ba190613d86565b915050610b12565b508092505050919050565b610bc5610bbf611e34565b82611f03565b610c04576040517f08c379a0000000000000000000000000000000000000000000000000000000008152600401610bfb90613e41565b60405180910390fd5b610c0f838383611fe1565b505050565b600d818051602081018201805184825260208301602085012081835280955050505050506000915054906101000a900473ffffffffffffffffffffffffffffffffffffffff1681565b600b8054610c6a90613aaf565b80601f0160208091040260200160405190810160405280929190818152602001828054610c9690613aaf565b8015610ce35780601f10610cb857610100808354040283529160200191610ce3565b820191906000526020600020905b815481529060010190602001808311610cc657829003601f168201915b505050505081565b610cf3611295565b610cfc57600080fd5b600047905060003373ffffffffffffffffffffffffffffffffffffffff1682604051610d2790613e92565b60006040518083038185875af1925050503d8060008114610d64576040519150601f19603f3d011682016040523d82523d6000602084013e610d69565b606091505b5050905080610dad576040517f08c379a0000000000000000000000000000000000000000000000000000000008152600401610da490613ef3565b60405180910390fd5b5050565b610dcc8383836040518060200160405280600081525061149f565b505050565b600e818051602081018201805184825260208301602085012081835280955050505050506000915090508054610e0690613aaf565b80601f0160208091040260200160405190810160405280929190818152602001828054610e3290613aaf565b8015610e7f5780601f10610e5457610100808354040283529160200191610e7f565b820191906000526020600020905b815481529060010190602001808311610e6257829003601f168201915b505050505081565b6000806002600084815260200190815260200160002060009054906101000a900473ffffffffffffffffffffffffffffffffffffffff169050600073ffffffffffffffffffffffffffffffffffffffff168173ffffffffffffffffffffffffffffffffffffffff161415610f30576040517f08c379a0000000000000000000000000000000000000000000000000000000008152600401610f2790613f85565b60405180910390fd5b80915050919050565b600c6020528060005260406000206000915090508054610f5890613aaf565b80601f0160208091040260200160405190810160405280929190818152602001828054610f8490613aaf565b8015610fd15780601f10610fa657610100808354040283529160200191610fd1565b820191906000526020600020905b815481529060010190602001808311610fb457829003601f168201915b505050505081565b60606110196040518060400160405280601f81526020017f47657474696e6720616c6c206e616d65732066726f6d20636f6e747261637400815250611cc5565b60006110256008611ef5565b67ffffffffffffffff81111561103e5761103d6134a7565b5b60405190808252806020026020018201604052801561107157816020015b606081526020019060019003908161105c5790505b50905060005b6110816008611ef5565b8110156111af57600c600082815260200190815260200160002080546110a690613aaf565b80601f01602080910402602001604051908101604052809291908181526020018280546110d290613aaf565b801561111f5780601f106110f45761010080835404028352916020019161111f565b820191906000526020600020905b81548152906001019060200180831161110257829003601f168201915b505050505082828151811061113757611136613d28565b5b602002602001018190525061119c6040518060400160405280601781526020017f4e616d6520666f7220746f6b656e2025642069732025730000000000000000008152508284848151811061118f5761118e613d28565b5b6020026020010151612248565b80806111a790613d86565b915050611077565b508091505090565b60008073ffffffffffffffffffffffffffffffffffffffff168273ffffffffffffffffffffffffffffffffffffffff161415611228576040517f08c379a000000000000000000000000000000000000000000000000000000000815260040161121f90614017565b60405180910390fd5b600360008373ffffffffffffffffffffffffffffffffffffffff1673ffffffffffffffffffffffffffffffffffffffff168152602001908152602001600020549050919050565b600760009054906101000a900473ffffffffffffffffffffffffffffffffffffffff1681565b6000600760009054906101000a900473ffffffffffffffffffffffffffffffffffffffff1673ffffffffffffffffffffffffffffffffffffffff163373ffffffffffffffffffffffffffffffffffffffff1614905090565b6060600180546112fc90613aaf565b80601f016020809104026020016040519081016040528092919081815260200182805461132890613aaf565b80156113755780601f1061134a57610100808354040283529160200191611375565b820191906000526020600020905b81548152906001019060200180831161135857829003601f168201915b5050505050905090565b600060036113d084848080601f016020809104026020016040519081016040528093929190818152602001838380828437600081840152601f19601f820116905080830192505050505050506122e7565b1015801561142b5750600a61142884848080601f016020809104026020016040519081016040528093929190818152602001838380828437600081840152601f19601f820116905080830192505050505050506122e7565b11155b8015611481575061147f83838080601f016020809104026020016040519081016040528093929190818152602001838380828437600081840152601f19601f82011690508083019250505050505050610b01565b155b905092915050565b61149b611494611e34565b838361249c565b5050565b6114b06114aa611e34565b83611f03565b6114ef576040517f08c379a00000000000000000000000000000000000000000000000000000000081526004016114e690613e41565b60405180910390fd5b6114fb84848484612609565b50505050565b6000600d8383604051611515929190613cc7565b908152602001604051809103902060009054906101000a900473ffffffffffffffffffffffffffffffffffffffff16905092915050565b600d848460405161155e929190613cc7565b908152602001604051809103902060009054906101000a900473ffffffffffffffffffffffffffffffffffffffff1673ffffffffffffffffffffffffffffffffffffffff163373ffffffffffffffffffffffffffffffffffffffff16146115f1576040517f8f48fb2100000000000000000000000000000000000000000000000000000000815260040160405180910390fd5b8181600e8686604051611605929190613cc7565b90815260200160405180910390209190611620929190613012565b506116a56040518060400160405280601a81526020017f257320686173207365742061207265636f726420666f722025730000000000008152503386868080601f016020809104026020016040519081016040528093929190818152602001838380828437600081840152601f19601f82011690508083019250505050505050612665565b50505050565b60606116b682611dc8565b6116f5576040517f08c379a00000000000000000000000000000000000000000000000000000000081526004016116ec906140a9565b60405180910390fd5b600060066000848152602001908152602001600020805461171590613aaf565b80601f016020809104026020016040519081016040528092919081815260200182805461174190613aaf565b801561178e5780601f106117635761010080835404028352916020019161178e565b820191906000526020600020905b81548152906001019060200180831161177157829003601f168201915b50505050509050600061179f612704565b90506000815114156117b55781925050506117f8565b6000825111156117ea5780826040516020016117d29291906140c9565b604051602081830303815290604052925050506117f8565b6117f38461271b565b925050505b919050565b6000600560008473ffffffffffffffffffffffffffffffffffffffff1673ffffffffffffffffffffffffffffffffffffffff16815260200190815260200160002060008373ffffffffffffffffffffffffffffffffffffffff1673ffffffffffffffffffffffffffffffffffffffff16815260200190815260200160002060009054906101000a900460ff16905092915050565b600073ffffffffffffffffffffffffffffffffffffffff16600d83836040516118bb929190613cc7565b908152602001604051809103902060009054906101000a900473ffffffffffffffffffffffffffffffffffffffff1673ffffffffffffffffffffffffffffffffffffffff1614611937576040517f3a81d6fc00000000000000000000000000000000000000000000000000000000815260040160405180910390fd5b611941828261137f565b6119845781816040517f7f19f48d00000000000000000000000000000000000000000000000000000000815260040161197b92919061411a565b60405180910390fd5b60006119908383611c1f565b9050803410156119d5576040517f08c379a00000000000000000000000000000000000000000000000000000000081526004016119cc9061418a565b60405180910390fd5b60008383600b6040516020016119ed9392919061428a565b60405160208183030381529060405290506000600982600a604051602001611a17939291906142bb565b60405160208183030381529060405290506000611a346008611ef5565b90506000611a8587878080601f016020809104026020016040519081016040528093929190818152602001838380828437600081840152601f19601f820116905080830192505050505050506122e7565b90506000611a92826127c2565b90506000611acc8989611aa488612923565b85604051602001611ab89493929190614468565b604051602081830303815290604052612923565b9050600081604051602001611ae19190614513565b6040516020818303038152906040529050611b13604051806060016040528060398152602001614cff60399139611cc5565b611b526040518060400160405280600e81526020017f46696e616c20746f6b656e55524900000000000000000000000000000000000081525082612abb565b611b73604051806060016040528060398152602001614d3860399139611cc5565b611b7d3386612b57565b611b878582612b75565b33600d8b8b604051611b9a929190613cc7565b908152602001604051809103902060006101000a81548173ffffffffffffffffffffffffffffffffffffffff021916908373ffffffffffffffffffffffffffffffffffffffff1602179055508989600c60008881526020019081526020016000209190611c08929190613012565b50611c136008612be9565b50505050505050505050565b600080611c6f84848080601f016020809104026020016040519081016040528093929190818152602001838380828437600081840152601f19601f820116905080830192505050505050506122e7565b905060008111611c7e57600080fd5b6003811415611c98576706f05b59d3b20000915050611cbf565b6004811415611cb257670429d069189e0000915050611cbf565b67016345785d8a00009150505b92915050565b611d5b81604051602401611cd991906132a3565b6040516020818303038152906040527f41304fac000000000000000000000000000000000000000000000000000000007bffffffffffffffffffffffffffffffffffffffffffffffffffffffff19166020820180517bffffffffffffffffffffffffffffffffffffffffffffffffffffffff8381831617835250505050612bff565b50565b60007f01ffc9a7000000000000000000000000000000000000000000000000000000007bffffffffffffffffffffffffffffffffffffffffffffffffffffffff1916827bffffffffffffffffffffffffffffffffffffffffffffffffffffffff1916149050919050565b60008073ffffffffffffffffffffffffffffffffffffffff166002600084815260200190815260200160002060009054906101000a900473ffffffffffffffffffffffffffffffffffffffff1673ffffffffffffffffffffffffffffffffffffffff1614159050919050565b600033905090565b816004600083815260200190815260200160002060006101000a81548173ffffffffffffffffffffffffffffffffffffffff021916908373ffffffffffffffffffffffffffffffffffffffff160217905550808273ffffffffffffffffffffffffffffffffffffffff16611eaf83610e87565b73ffffffffffffffffffffffffffffffffffffffff167f8c5be1e5ebec7d5bd14f71427d1e84f3dd0314c0f7b2291e5b200ac8c7c3b92560405160405180910390a45050565b600081600001549050919050565b6000611f0e82611dc8565b611f4d576040517f08c379a0000000000000000000000000000000000000000000000000000000008152600401611f44906145a7565b60405180910390fd5b6000611f5883610e87565b90508073ffffffffffffffffffffffffffffffffffffffff168473ffffffffffffffffffffffffffffffffffffffff161480611fc757508373ffffffffffffffffffffffffffffffffffffffff16611faf846108b1565b73ffffffffffffffffffffffffffffffffffffffff16145b80611fd85750611fd781856117fd565b5b91505092915050565b8273ffffffffffffffffffffffffffffffffffffffff1661200182610e87565b73ffffffffffffffffffffffffffffffffffffffff1614612057576040517f08c379a000000000000000000000000000000000000000000000000000000000815260040161204e90614639565b60405180910390fd5b600073ffffffffffffffffffffffffffffffffffffffff168273ffffffffffffffffffffffffffffffffffffffff1614156120c7576040517f08c379a00000000000000000000000000000000000000000000000000000000081526004016120be906146cb565b60405180910390fd5b6120d2838383612c28565b6120dd600082611e3c565b6001600360008573ffffffffffffffffffffffffffffffffffffffff1673ffffffffffffffffffffffffffffffffffffffff168152602001908152602001600020600082825461212d91906146eb565b925050819055506001600360008473ffffffffffffffffffffffffffffffffffffffff1673ffffffffffffffffffffffffffffffffffffffff1681526020019081526020016000206000828254612184919061471f565b92505081905550816002600083815260200190815260200160002060006101000a81548173ffffffffffffffffffffffffffffffffffffffff021916908373ffffffffffffffffffffffffffffffffffffffff160217905550808273ffffffffffffffffffffffffffffffffffffffff168473ffffffffffffffffffffffffffffffffffffffff167fddf252ad1be2c89b69c2b068fc378daa952ba7f163c4a11628f55a4df523b3ef60405160405180910390a4612243838383612c2d565b505050565b6122e283838360405160240161226093929190614775565b6040516020818303038152906040527fa3f5c739000000000000000000000000000000000000000000000000000000007bffffffffffffffffffffffffffffffffffffffffffffffffffffffff19166020820180517bffffffffffffffffffffffffffffffffffffffffffffffffffffffff8381831617835250505050612bff565b505050565b60008060008084519050600092505b8082101561249157600085838151811061231357612312613d28565b5b602001015160f81c60f81b9050608060f81b817effffffffffffffffffffffffffffffffffffffffffffffffffffffffffffff191610156123625760018361235b919061471f565b925061247d565b60e060f81b817effffffffffffffffffffffffffffffffffffffffffffffffffffffffffffff191610156123a45760028361239d919061471f565b925061247c565b60f060f81b817effffffffffffffffffffffffffffffffffffffffffffffffffffffffffffff191610156123e6576003836123df919061471f565b925061247b565b60f8801b817effffffffffffffffffffffffffffffffffffffffffffffffffffffffffffff1916101561242757600483612420919061471f565b925061247a565b60fc60f81b817effffffffffffffffffffffffffffffffffffffffffffffffffffffffffffff1916101561246957600583612462919061471f565b9250612479565b600683612476919061471f565b92505b5b5b5b5b50828061248990613d86565b9350506122f6565b829350505050919050565b8173ffffffffffffffffffffffffffffffffffffffff168373ffffffffffffffffffffffffffffffffffffffff16141561250b576040517f08c379a000000000000000000000000000000000000000000000000000000000815260040161250290614806565b60405180910390fd5b80600560008573ffffffffffffffffffffffffffffffffffffffff1673ffffffffffffffffffffffffffffffffffffffff16815260200190815260200160002060008473ffffffffffffffffffffffffffffffffffffffff1673ffffffffffffffffffffffffffffffffffffffff16815260200190815260200160002060006101000a81548160ff0219169083151502179055508173ffffffffffffffffffffffffffffffffffffffff168373ffffffffffffffffffffffffffffffffffffffff167f17307eab39ab6107e8899845ad3d59bd9653f200f220920489ca2b5937696c31836040516125fc91906131ef565b60405180910390a3505050565b612614848484611fe1565b61262084848484612c32565b61265f576040517f08c379a000000000000000000000000000000000000000000000000000000000815260040161265690614898565b60405180910390fd5b50505050565b6126ff83838360405160240161267d939291906148b8565b6040516020818303038152906040527fe0e9ad4f000000000000000000000000000000000000000000000000000000007bffffffffffffffffffffffffffffffffffffffffffffffffffffffff19166020820180517bffffffffffffffffffffffffffffffffffffffffffffffffffffffff8381831617835250505050612bff565b505050565b606060405180602001604052806000815250905090565b606061272682611dc8565b612765576040517f08c379a000000000000000000000000000000000000000000000000000000000815260040161275c9061496f565b60405180910390fd5b600061276f612704565b9050600081511161278f57604051806020016040528060008152506127ba565b80612799846127c2565b6040516020016127aa9291906140c9565b6040516020818303038152906040525b915050919050565b6060600082141561280a576040518060400160405280600181526020017f3000000000000000000000000000000000000000000000000000000000000000815250905061291e565b600082905060005b6000821461283c57808061282590613d86565b915050600a8261283591906149be565b9150612812565b60008167ffffffffffffffff811115612858576128576134a7565b5b6040519080825280601f01601f19166020018201604052801561288a5781602001600182028036833780820191505090505b5090505b60008514612917576001826128a391906146eb565b9150600a856128b291906149ef565b60306128be919061471f565b60f81b8183815181106128d4576128d3613d28565b5b60200101907effffffffffffffffffffffffffffffffffffffffffffffffffffffffffffff1916908160001a905350600a8561291091906149be565b945061288e565b8093505050505b919050565b6060600082519050600081141561294c5760405180602001604052806000815250915050612ab6565b6000600360028361295d919061471f565b61296791906149be565b60046129739190614a20565b90506000602082612984919061471f565b67ffffffffffffffff81111561299d5761299c6134a7565b5b6040519080825280601f01601f1916602001820160405280156129cf5781602001600182028036833780820191505090505b5090506000604051806060016040528060408152602001614d71604091399050600181016020830160005b86811015612a735760038101905062ffffff818a015116603f8160121c168401518060081b905060ff603f83600c1c1686015116810190508060081b905060ff603f8360061c1686015116810190508060081b905060ff603f831686015116810190508060e01b905080845260048401935050506129fa565b506003860660018114612a8d5760028114612a9d57612aa8565b613d3d60f01b6002830352612aa8565b603d60f81b60018303525b508484525050819450505050505b919050565b612b538282604051602401612ad1929190614a7a565b6040516020818303038152906040527f4b5c4277000000000000000000000000000000000000000000000000000000007bffffffffffffffffffffffffffffffffffffffffffffffffffffffff19166020820180517bffffffffffffffffffffffffffffffffffffffffffffffffffffffff8381831617835250505050612bff565b5050565b612b71828260405180602001604052806000815250612dba565b5050565b612b7e82611dc8565b612bbd576040517f08c379a0000000000000000000000000000000000000000000000000000000008152600401612bb490614b23565b60405180910390fd5b80600660008481526020019081526020016000209080519060200190612be4929190613098565b505050565b6001816000016000828254019250508190555050565b60008151905060006a636f6e736f6c652e6c6f679050602083016000808483855afa5050505050565b505050565b505050565b6000612c538473ffffffffffffffffffffffffffffffffffffffff16612e15565b15612dad578373ffffffffffffffffffffffffffffffffffffffff1663150b7a02612c7c611e34565b8786866040518563ffffffff1660e01b8152600401612c9e9493929190614b98565b6020604051808303816000875af1925050508015612cda57506040513d601f19601f82011682018060405250810190612cd79190614bf9565b60015b612d5d573d8060008114612d0a576040519150601f19603f3d011682016040523d82523d6000602084013e612d0f565b606091505b50600081511415612d55576040517f08c379a0000000000000000000000000000000000000000000000000000000008152600401612d4c90614898565b60405180910390fd5b805181602001fd5b63150b7a0260e01b7bffffffffffffffffffffffffffffffffffffffffffffffffffffffff1916817bffffffffffffffffffffffffffffffffffffffffffffffffffffffff191614915050612db2565b600190505b949350505050565b612dc48383612e38565b612dd16000848484612c32565b612e10576040517f08c379a0000000000000000000000000000000000000000000000000000000008152600401612e0790614898565b60405180910390fd5b505050565b6000808273ffffffffffffffffffffffffffffffffffffffff163b119050919050565b600073ffffffffffffffffffffffffffffffffffffffff168273ffffffffffffffffffffffffffffffffffffffff161415612ea8576040517f08c379a0000000000000000000000000000000000000000000000000000000008152600401612e9f90614c72565b60405180910390fd5b612eb181611dc8565b15612ef1576040517f08c379a0000000000000000000000000000000000000000000000000000000008152600401612ee890614cde565b60405180910390fd5b612efd60008383612c28565b6001600360008473ffffffffffffffffffffffffffffffffffffffff1673ffffffffffffffffffffffffffffffffffffffff1681526020019081526020016000206000828254612f4d919061471f565b92505081905550816002600083815260200190815260200160002060006101000a81548173ffffffffffffffffffffffffffffffffffffffff021916908373ffffffffffffffffffffffffffffffffffffffff160217905550808273ffffffffffffffffffffffffffffffffffffffff16600073ffffffffffffffffffffffffffffffffffffffff167fddf252ad1be2c89b69c2b068fc378daa952ba7f163c4a11628f55a4df523b3ef60405160405180910390a461300e60008383612c2d565b5050565b82805461301e90613aaf565b90600052602060002090601f0160209004810192826130405760008555613087565b82601f1061305957803560ff1916838001178555613087565b82800160010185558215613087579182015b8281111561308657823582559160200191906001019061306b565b5b509050613094919061311e565b5090565b8280546130a490613aaf565b90600052602060002090601f0160209004810192826130c6576000855561310d565b82601f106130df57805160ff191683800117855561310d565b8280016001018555821561310d579182015b8281111561310c5782518255916020019190600101906130f1565b5b50905061311a919061311e565b5090565b5b8082111561313757600081600090555060010161311f565b5090565b6000604051905090565b600080fd5b600080fd5b60007fffffffff0000000000000000000000000000000000000000000000000000000082169050919050565b6131848161314f565b811461318f57600080fd5b50565b6000813590506131a18161317b565b92915050565b6000602082840312156131bd576131bc613145565b5b60006131cb84828501613192565b91505092915050565b60008115159050919050565b6131e9816131d4565b82525050565b600060208201905061320460008301846131e0565b92915050565b600081519050919050565b600082825260208201905092915050565b60005b83811015613244578082015181840152602081019050613229565b83811115613253576000848401525b50505050565b6000601f19601f8301169050919050565b60006132758261320a565b61327f8185613215565b935061328f818560208601613226565b61329881613259565b840191505092915050565b600060208201905081810360008301526132bd818461326a565b905092915050565b6000819050919050565b6132d8816132c5565b81146132e357600080fd5b50565b6000813590506132f5816132cf565b92915050565b60006020828403121561331157613310613145565b5b600061331f848285016132e6565b91505092915050565b600073ffffffffffffffffffffffffffffffffffffffff82169050919050565b600061335382613328565b9050919050565b61336381613348565b82525050565b600060208201905061337e600083018461335a565b92915050565b61338d81613348565b811461339857600080fd5b50565b6000813590506133aa81613384565b92915050565b600080604083850312156133c7576133c6613145565b5b60006133d58582860161339b565b92505060206133e6858286016132e6565b9150509250929050565b600080fd5b600080fd5b600080fd5b60008083601f840112613415576134146133f0565b5b8235905067ffffffffffffffff811115613432576134316133f5565b5b60208301915083600182028301111561344e5761344d6133fa565b5b9250929050565b6000806020838503121561346c5761346b613145565b5b600083013567ffffffffffffffff81111561348a5761348961314a565b5b613496858286016133ff565b92509250509250929050565b600080fd5b7f4e487b7100000000000000000000000000000000000000000000000000000000600052604160045260246000fd5b6134df82613259565b810181811067ffffffffffffffff821117156134fe576134fd6134a7565b5b80604052505050565b600061351161313b565b905061351d82826134d6565b919050565b600067ffffffffffffffff82111561353d5761353c6134a7565b5b61354682613259565b9050602081019050919050565b82818337600083830152505050565b600061357561357084613522565b613507565b905082815260208101848484011115613591576135906134a2565b5b61359c848285613553565b509392505050565b600082601f8301126135b9576135b86133f0565b5b81356135c9848260208601613562565b91505092915050565b6000602082840312156135e8576135e7613145565b5b600082013567ffffffffffffffff8111156136065761360561314a565b5b613612848285016135a4565b91505092915050565b60008060006060848603121561363457613633613145565b5b60006136428682870161339b565b93505060206136538682870161339b565b9250506040613664868287016132e6565b9150509250925092565b600081519050919050565b600082825260208201905092915050565b6000819050602082019050919050565b600082825260208201905092915050565b60006136b68261320a565b6136c0818561369a565b93506136d0818560208601613226565b6136d981613259565b840191505092915050565b60006136f083836136ab565b905092915050565b6000602082019050919050565b60006137108261366e565b61371a8185613679565b93508360208202850161372c8561368a565b8060005b85811015613768578484038952815161374985826136e4565b9450613754836136f8565b925060208a01995050600181019050613730565b50829750879550505050505092915050565b600060208201905081810360008301526137948184613705565b905092915050565b6000602082840312156137b2576137b1613145565b5b60006137c08482850161339b565b91505092915050565b6137d2816132c5565b82525050565b60006020820190506137ed60008301846137c9565b92915050565b60006137fe82613328565b9050919050565b61380e816137f3565b82525050565b60006020820190506138296000830184613805565b92915050565b613838816131d4565b811461384357600080fd5b50565b6000813590506138558161382f565b92915050565b6000806040838503121561387257613871613145565b5b60006138808582860161339b565b925050602061389185828601613846565b9150509250929050565b600067ffffffffffffffff8211156138b6576138b56134a7565b5b6138bf82613259565b9050602081019050919050565b60006138df6138da8461389b565b613507565b9050828152602081018484840111156138fb576138fa6134a2565b5b613906848285613553565b509392505050565b600082601f830112613923576139226133f0565b5b81356139338482602086016138cc565b91505092915050565b6000806000806080858703121561395657613955613145565b5b60006139648782880161339b565b94505060206139758782880161339b565b9350506040613986878288016132e6565b925050606085013567ffffffffffffffff8111156139a7576139a661314a565b5b6139b38782880161390e565b91505092959194509250565b600080600080604085870312156139d9576139d8613145565b5b600085013567ffffffffffffffff8111156139f7576139f661314a565b5b613a03878288016133ff565b9450945050602085013567ffffffffffffffff811115613a2657613a2561314a565b5b613a32878288016133ff565b925092505092959194509250565b60008060408385031215613a5757613a56613145565b5b6000613a658582860161339b565b9250506020613a768582860161339b565b9150509250929050565b7f4e487b7100000000000000000000000000000000000000000000000000000000600052602260045260246000fd5b60006002820490506001821680613ac757607f821691505b60208210811415613adb57613ada613a80565b5b50919050565b7f4552433732313a20617070726f76656420717565727920666f72206e6f6e657860008201527f697374656e7420746f6b656e0000000000000000000000000000000000000000602082015250565b6000613b3d602c83613215565b9150613b4882613ae1565b604082019050919050565b60006020820190508181036000830152613b6c81613b30565b9050919050565b7f4552433732313a20617070726f76616c20746f2063757272656e74206f776e6560008201527f7200000000000000000000000000000000000000000000000000000000000000602082015250565b6000613bcf602183613215565b9150613bda82613b73565b604082019050919050565b60006020820190508181036000830152613bfe81613bc2565b9050919050565b7f4552433732313a20617070726f76652063616c6c6572206973206e6f74206f7760008201527f6e6572206e6f7220617070726f76656420666f7220616c6c0000000000000000602082015250565b6000613c61603883613215565b9150613c6c82613c05565b604082019050919050565b60006020820190508181036000830152613c9081613c54565b9050919050565b600081905092915050565b6000613cae8385613c97565b9350613cbb838584613553565b82840190509392505050565b6000613cd4828486613ca2565b91508190509392505050565b6000613ceb8261320a565b613cf58185613c97565b9350613d05818560208601613226565b80840191505092915050565b6000613d1d8284613ce0565b915081905092915050565b7f4e487b7100000000000000000000000000000000000000000000000000000000600052603260045260246000fd5b7f4e487b7100000000000000000000000000000000000000000000000000000000600052601160045260246000fd5b6000613d91826132c5565b91507fffffffffffffffffffffffffffffffffffffffffffffffffffffffffffffffff821415613dc457613dc3613d57565b5b600182019050919050565b7f4552433732313a207472616e736665722063616c6c6572206973206e6f74206f60008201527f776e6572206e6f7220617070726f766564000000000000000000000000000000602082015250565b6000613e2b603183613215565b9150613e3682613dcf565b604082019050919050565b60006020820190508181036000830152613e5a81613e1e565b9050919050565b600081905092915050565b50565b6000613e7c600083613e61565b9150613e8782613e6c565b600082019050919050565b6000613e9d82613e6f565b9150819050919050565b7f4661696c656420746f207769746864726177204d617469630000000000000000600082015250565b6000613edd601883613215565b9150613ee882613ea7565b602082019050919050565b60006020820190508181036000830152613f0c81613ed0565b9050919050565b7f4552433732313a206f776e657220717565727920666f72206e6f6e657869737460008201527f656e7420746f6b656e0000000000000000000000000000000000000000000000602082015250565b6000613f6f602983613215565b9150613f7a82613f13565b604082019050919050565b60006020820190508181036000830152613f9e81613f62565b9050919050565b7f4552433732313a2062616c616e636520717565727920666f7220746865207a6560008201527f726f206164647265737300000000000000000000000000000000000000000000602082015250565b6000614001602a83613215565b915061400c82613fa5565b604082019050919050565b6000602082019050818103600083015261403081613ff4565b9050919050565b7f45524337323155524953746f726167653a2055524920717565727920666f722060008201527f6e6f6e6578697374656e7420746f6b656e000000000000000000000000000000602082015250565b6000614093603183613215565b915061409e82614037565b604082019050919050565b600060208201905081810360008301526140c281614086565b9050919050565b60006140d58285613ce0565b91506140e18284613ce0565b91508190509392505050565b60006140f98385613215565b9350614106838584613553565b61410f83613259565b840190509392505050565b600060208201905081810360008301526141358184866140ed565b90509392505050565b7f4e6f7420656e6f756768204d6174696320706169640000000000000000000000600082015250565b6000614174601583613215565b915061417f8261413e565b602082019050919050565b600060208201905081810360008301526141a381614167565b9050919050565b7f2e00000000000000000000000000000000000000000000000000000000000000600082015250565b60006141e0600183613c97565b91506141eb826141aa565b600182019050919050565b60008190508160005260206000209050919050565b6000815461421881613aaf565b6142228186613c97565b9450600182166000811461423d576001811461424e57614281565b60ff19831686528186019350614281565b614257856141f6565b60005b838110156142795781548189015260018201915060208101905061425a565b838801955050505b50505092915050565b6000614297828587613ca2565b91506142a2826141d3565b91506142ae828461420b565b9150819050949350505050565b60006142c7828661420b565b91506142d38285613ce0565b91506142df828461420b565b9150819050949350505050565b7f7b226e616d65223a202200000000000000000000000000000000000000000000600082015250565b6000614322600a83613c97565b915061432d826142ec565b600a82019050919050565b7f222c20226465736372697074696f6e223a20224120646f6d61696e206f6e207460008201527f6865204d6f6f6e206e616d652073657276696365222c2022696d616765223a2060208201527f22646174613a696d6167652f7376672b786d6c3b6261736536342c0000000000604082015250565b60006143ba605b83613c97565b91506143c582614338565b605b82019050919050565b7f222c226c656e677468223a220000000000000000000000000000000000000000600082015250565b6000614406600c83613c97565b9150614411826143d0565b600c82019050919050565b7f227d000000000000000000000000000000000000000000000000000000000000600082015250565b6000614452600283613c97565b915061445d8261441c565b600282019050919050565b600061447382614315565b9150614480828688613ca2565b915061448b826143ad565b91506144978285613ce0565b91506144a2826143f9565b91506144ae8284613ce0565b91506144b982614445565b915081905095945050505050565b7f646174613a6170706c69636174696f6e2f6a736f6e3b6261736536342c000000600082015250565b60006144fd601d83613c97565b9150614508826144c7565b601d82019050919050565b600061451e826144f0565b915061452a8284613ce0565b915081905092915050565b7f4552433732313a206f70657261746f7220717565727920666f72206e6f6e657860008201527f697374656e7420746f6b656e0000000000000000000000000000000000000000602082015250565b6000614591602c83613215565b915061459c82614535565b604082019050919050565b600060208201905081810360008301526145c081614584565b9050919050565b7f4552433732313a207472616e736665722066726f6d20696e636f72726563742060008201527f6f776e6572000000000000000000000000000000000000000000000000000000602082015250565b6000614623602583613215565b915061462e826145c7565b604082019050919050565b6000602082019050818103600083015261465281614616565b9050919050565b7f4552433732313a207472616e7366657220746f20746865207a65726f2061646460008201527f7265737300000000000000000000000000000000000000000000000000000000602082015250565b60006146b5602483613215565b91506146c082614659565b604082019050919050565b600060208201905081810360008301526146e4816146a8565b9050919050565b60006146f6826132c5565b9150614701836132c5565b92508282101561471457614713613d57565b5b828203905092915050565b600061472a826132c5565b9150614735836132c5565b9250827fffffffffffffffffffffffffffffffffffffffffffffffffffffffffffffffff0382111561476a57614769613d57565b5b828201905092915050565b6000606082019050818103600083015261478f818661326a565b905061479e60208301856137c9565b81810360408301526147b0818461326a565b9050949350505050565b7f4552433732313a20617070726f766520746f2063616c6c657200000000000000600082015250565b60006147f0601983613215565b91506147fb826147ba565b602082019050919050565b6000602082019050818103600083015261481f816147e3565b9050919050565b7f4552433732313a207472616e7366657220746f206e6f6e20455243373231526560008201527f63656976657220696d706c656d656e7465720000000000000000000000000000602082015250565b6000614882603283613215565b915061488d82614826565b604082019050919050565b600060208201905081810360008301526148b181614875565b9050919050565b600060608201905081810360008301526148d2818661326a565b90506148e1602083018561335a565b81810360408301526148f3818461326a565b9050949350505050565b7f4552433732314d657461646174613a2055524920717565727920666f72206e6f60008201527f6e6578697374656e7420746f6b656e0000000000000000000000000000000000602082015250565b6000614959602f83613215565b9150614964826148fd565b604082019050919050565b600060208201905081810360008301526149888161494c565b9050919050565b7f4e487b7100000000000000000000000000000000000000000000000000000000600052601260045260246000fd5b60006149c9826132c5565b91506149d4836132c5565b9250826149e4576149e361498f565b5b828204905092915050565b60006149fa826132c5565b9150614a05836132c5565b925082614a1557614a1461498f565b5b828206905092915050565b6000614a2b826132c5565b9150614a36836132c5565b9250817fffffffffffffffffffffffffffffffffffffffffffffffffffffffffffffffff0483118215151615614a6f57614a6e613d57565b5b828202905092915050565b60006040820190508181036000830152614a94818561326a565b90508181036020830152614aa8818461326a565b90509392505050565b7f45524337323155524953746f726167653a2055524920736574206f66206e6f6e60008201527f6578697374656e7420746f6b656e000000000000000000000000000000000000602082015250565b6000614b0d602e83613215565b9150614b1882614ab1565b604082019050919050565b60006020820190508181036000830152614b3c81614b00565b9050919050565b600081519050919050565b600082825260208201905092915050565b6000614b6a82614b43565b614b748185614b4e565b9350614b84818560208601613226565b614b8d81613259565b840191505092915050565b6000608082019050614bad600083018761335a565b614bba602083018661335a565b614bc760408301856137c9565b8181036060830152614bd98184614b5f565b905095945050505050565b600081519050614bf38161317b565b92915050565b600060208284031215614c0f57614c0e613145565b5b6000614c1d84828501614be4565b91505092915050565b7f4552433732313a206d696e7420746f20746865207a65726f2061646472657373600082015250565b6000614c5c602083613215565b9150614c6782614c26565b602082019050919050565b60006020820190508181036000830152614c8b81614c4f565b9050919050565b7f4552433732313a20746f6b656e20616c7265616479206d696e74656400000000600082015250565b6000614cc8601c83613215565b9150614cd382614c92565b602082019050919050565b60006020820190508181036000830152614cf781614cbb565b905091905056fe0a2d2d2d2d2d2d2d2d2d2d2d2d2d2d2d2d2d2d2d2d2d2d2d2d2d2d2d2d2d2d2d2d2d2d2d2d2d2d2d2d2d2d2d2d2d2d2d2d2d2d2d2d2d2d2d2d2d2d2d2d2d2d2d2d2d2d2d2d2d2d2d2d2d2d2d2d2d2d2d2d2d2d2d2d2d2d2d2d2d2d2d2d2d2d2d2d2d2d2d2d2d2d2d2d2d2d2d2d2d2d2d2d0a4142434445464748494a4b4c4d4e4f505152535455565758595a6162636465666768696a6b6c6d6e6f707172737475767778797a303132333435363738392b2fa2646970667358221220f905de3d7911f92b73eb382382e50e1641e0b0c6487d66ec5fa646886c759b1164736f6c634300080a003354484953204953204d5920444f4d41494e5320434f4e54524143542e204e4943453c73766720786d6c6e733d22687474703a2f2f7777772e77332e6f72672f323030302f737667222077696474683d2232373022206865696768743d22323730222066696c6c3d226e6f6e65223e3c706174682066696c6c3d2275726c282342292220643d224d302030683237307632373048307a222f3e3c646566733e3c66696c7465722069643d22412220636f6c6f722d696e746572706f6c6174696f6e2d66696c746572733d2273524742222066696c746572556e6974733d227573657253706163654f6e55736522206865696768743d22323730222077696474683d22323730223e3c666544726f70536861646f772064783d2230222064793d22312220737464446576696174696f6e3d22322220666c6f6f642d6f7061636974793d222e323235222077696474683d223230302522206865696768743d2232303025222f3e3c2f66696c7465723e3c2f646566733e3c7061746820643d224d37322e3836332034322e393439632d2e3636382d2e3338372d312e3432362d2e35392d322e3139372d2e3539732d312e3532392e3230342d322e3139372e35396c2d31302e30383120362e3033322d362e383520332e3933342d31302e30383120362e303332632d2e3636382e3338372d312e3432362e35392d322e3139372e3539732d312e3532392d2e3230342d322e3139372d2e35396c2d382e3031332d342e37323161342e353220342e35322030203020312d312e3538392d312e363136632d2e3338342d2e3636352d2e3539342d312e3431382d2e3630382d322e313837762d392e3331632d2e3031332d2e3737352e3138352d312e3533382e3537322d322e32303861342e323520342e323520302030203120312e3632352d312e3539356c372e3838342d342e3539632e3636382d2e33383720312e3432362d2e353920322e3139372d2e353973312e3532392e32303420322e3139372e35396c372e38383420342e353961342e353220342e353220302030203120312e35383920312e363136632e3338342e3636352e35393420312e3431382e36303820322e31383776362e3033326c362e38352d342e303635762d362e303332632e3031332d2e3737352d2e3138352d312e3533382d2e3537322d322e32303861342e323520342e32352030203020302d312e3632352d312e3539354c34312e3435362032342e3539632d2e3636382d2e3338372d312e3432362d2e35392d322e3139372d2e3539732d312e3532392e3230342d322e3139372e35396c2d31342e38363420382e36353561342e323520342e32352030203020302d312e36323520312e353935632d2e3338372e36372d2e35383520312e3433342d2e35373220322e3230387631372e343431632d2e3031332e3737352e31383520312e3533382e35373220322e32303861342e323520342e323520302030203020312e36323520312e3539356c31342e38363420382e363535632e3636382e33383720312e3432362e353920322e3139372e353973312e3532392d2e32303420322e3139372d2e35396c31302e3038312d352e39303120362e38352d342e3036352031302e3038312d352e393031632e3636382d2e33383720312e3432362d2e353920322e3139372d2e353973312e3532392e32303420322e3139372e35396c372e38383420342e353961342e353220342e353220302030203120312e35383920312e363136632e3338342e3636352e35393420312e3431382e36303820322e31383776392e333131632e3031332e3737352d2e31383520312e3533382d2e35373220322e32303861342e323520342e32352030203020312d312e36323520312e3539356c2d372e38383420342e373231632d2e3636382e3338372d312e3432362e35392d322e3139372e3539732d312e3532392d2e3230342d322e3139372d2e35396c2d372e3838342d342e353961342e353220342e35322030203020312d312e3538392d312e363136632d2e3338352d2e3636352d2e3539342d312e3431382d2e3630382d322e313837762d362e3033326c2d362e383520342e30363576362e303332632d2e3031332e3737352e31383520312e3533382e35373220322e32303861342e323520342e323520302030203020312e36323520312e3539356c31342e38363420382e363535632e3636382e33383720312e3432362e353920322e3139372e353973312e3532392d2e32303420322e3139372d2e35396c31342e3836342d382e363535632e3635372d2e33393420312e3230342d2e393520312e3538392d312e363136732e3539342d312e3431382e3630392d322e3138375635352e353338632e3031332d2e3737352d2e3138352d312e3533382d2e3537322d322e32303861342e323520342e32352030203020302d312e3632352d312e3539356c2d31342e3939332d382e3738367a222066696c6c3d2223666666222f3e3c646566733e3c6c696e6561724772616469656e742069643d2242222078313d2230222079313d2230222078323d22323730222079323d2232373022206772616469656e74556e6974733d227573657253706163654f6e557365223e3c73746f702073746f702d636f6c6f723d2223636235656565222f3e3c73746f70206f66667365743d2231222073746f702d636f6c6f723d2223306364376534222073746f702d6f7061636974793d222e3939222f3e3c2f6c696e6561724772616469656e743e3c2f646566733e3c7465787420783d2233322e352220793d223233312220666f6e742d73697a653d223237222066696c6c3d2223666666222066696c7465723d2275726c282341292220666f6e742d66616d696c793d22506c7573204a616b617274612053616e732c44656a6156752053616e732c4e6f746f20436f6c6f7220456d6f6a692c4170706c6520436f6c6f7220456d6f6a692c73616e732d73657269662220666f6e742d7765696768743d22626f6c64223e",
  "linkReferences": {},
  "deployedLinkReferences": {}
}